:100000000C945D000C9485000C9485000C94850084
:100010000C9485000C9485000C9485000C9485004C
:100020000C9485000C9485000C9485000C9485003C
:100030000C9485000C9485000C9485000C9485002C
:100040000C94DB030C9485000C944B040C94250455
:100050000C9485000C9485000C9485000C9485000C
:100060000C9485000C94850000000008000201003B
:100070000003040700000000000000000000000072
:10008000250028002B0000000000240027002A0083
:10009000040404040404040402020202020203032E
:1000A0000303030301020408102040800102040836
:1000B00010200102040810207D0411241FBECFEF80
:1000C000D8E0DEBFCDBF11E0A0E0B1E0EEE0FCE0A3
:1000D00002C005900D92A633B107D9F721E0A6E33F
:1000E000B1E001C01D92A63FB207E1F710E0CDE5F7
:1000F000D0E004C02197FE010E94FA05CC35D1075B
:10010000C9F70E94C7040C9405060C94000090E007
:10011000FC01EC55FF4F2491FC01E057FF4F849107
:10012000882399F090E0880F991FFC01EA57FF4F50
:10013000A591B491FC01E458FF4F859194918FB73C
:10014000F894EC91E22BEC938FBF089590E0FC01C2
:10015000E859FF4F2491FC01EC55FF4F3491FC010D
:10016000E057FF4FE491EE2309F43CC0222339F11C
:10017000233091F038F42130A9F0223001F584B514
:100180008F7D12C0273091F02830A1F02430B9F4CF
:10019000809180008F7D03C0809180008F77809355
:1001A00080000DC084B58F7784BD09C08091B000F8
:1001B0008F7703C08091B0008F7D8093B000F0E016
:1001C000EE0FFF1FE458FF4FA591B4919FB7F8942D
:1001D000611104C08C913095382302C0EC913E2B04
:1001E0003C939FBF08953FB7F89480913D01909153
:1001F0003E01A0913F01B091400126B5A89B05C0EA
:100200002F3F19F00196A11DB11D3FBFBA2FA92F95
:10021000982F8827820F911DA11DB11DBC01CD0112
:1002200042E0660F771F881F991F4A95D1F70895FE
:10023000CF92DF92EF92FF920F931F93CF93DF93B2
:100240006C017A018B01C0E0D0E0CE15DF0581F0B2
:10025000D8016D918D01D601ED91FC910190F08155
:10026000E02DC6010995892B11F02196EECF7E0174
:10027000C701DF91CF911F910F91FF90EF90DF9019
:10028000CF900895FC01538D448D252F30E0842FAD
:1002900090E0821B930B541710F0CF9608950197AE
:1002A0000895FC01918D828D981761F0828DDF0198
:1002B000A80FB11D5D968C91928D9F5F9F73928F59
:1002C00090E008958FEF9FEF0895FC01918D828D4E
:1002D000981731F0828DE80FF11D858D90E008951B
:1002E0008FEF9FEF0895FC01918D228D892F90E073
:1002F000805C9F4F821B91098F739927089581E439
:1003000091E00E94730121E0892B09F420E0822F03
:100310000895FC01848DDF01A80FB11DA35ABF4FC2
:100320002C91848D90E001968F739927848FA689F4
:10033000B7892C93A089B1898C91837080648C9348
:10034000938D848D981306C00288F389E02D8081F7
:100350008F7D80830895EF92FF920F931F93CF9329
:10036000DF93EC0181E0888F9B8D8C8D981305C005
:10037000E889F989808185FD26C0F62E0B8D10E075
:100380000F5F1F4F0F731127E02E8C8DE8120CC0EA
:100390000FB607FCFACFE889F989808185FFF5CF90
:1003A000CE010E948901F1CF8B8DFE01E80FF11D76
:1003B000E35AFF4FF0829FB7F8940B8FEA89FB89CD
:1003C000808180620AC09FB7F894EE89FF896083BC
:1003D000E889F98980818370806480839FBF81E090
:1003E00090E0DF91CF911F910F91FF90EF900895D2
:1003F000CF93DF93EC01888D8823C9F0EA89FB89CC
:10040000808185FD05C0A889B9898C9186FD0FC0C2
:100410000FB607FCF5CF808185FFF2CFA889B98997
:100420008C9185FFEDCFCE010E948901E7CFDF914E
:10043000CF91089580E090E0892B29F00E947F0100
:1004400081110C9400000895CF93DF93EC0160E0DC
:100450008E810E94A60061E08E810E94A60060E06D
:100460008E810E94A6008BE891E00197F1F7DF9161
:10047000CF910895CF92DF92EF92FF920F931F9347
:10048000CF93DF936C017C0187E0E80EF11CC0E0A4
:10049000D0E0062F10E0B8010C2E02C075956795CC
:1004A0000A94E2F76170F70181917F010E94A60032
:1004B0002196C430D10579F7C601DF91CF911F9104
:1004C0000F91FF90EF90DF90CF900C942402CF9289
:1004D000DF92EF92FF920F931F93CF93DF93EC0184
:1004E000F62E642F8C810E94A6008D818F3F19F01B
:1004F00060E00E94A6008F850F2D10E084FF25C0CC
:100500006E0187E0C80ED11CE12CF12CB8010E2C35
:1005100002C0759567950A94E2F76170F6018191C2
:100520006F010E94A600FFEFEF1AFF0A88E0E816AD
:10053000F10461F7CE01DF91CF911F910F91FF90F0
:10054000EF90DF90CF900C942402B80184E0759571
:1005500067958A95E1F7CE010E943A026F2DCE0190
:10056000DF91CF911F910F91FF90EF90DF90CF908F
:100570000C943A02CF93DF93823028F09091ED01F2
:1005800098609093ED018093F1011092F20180E464
:100590008093F30180E18093F40180E58093F5017D
:1005A0008091E2010E9487008091E3018F3F11F06A
:1005B0000E9487008091E4010E948700CEEDD1E087
:1005C0009E012E5D31408091ED0184FD03C084E0E9
:1005D00090E002C088E090E021962817390724F4C3
:1005E0008E810E948700ECCF8BE39DE00197F1F7AD
:1005F00060E08091E2010E94A60060E08091E40149
:100600000E94A6008091E3018F3F19F060E00E94F4
:10061000A6006091ED0164FD20C063E08EED91E0E5
:100620000E943A02CBE4D6E4CE010197F1F763E0F1
:100630008EED91E00E943A022197F1F763E08EED92
:1006400091E00E943A0283E592E00197F1F762E0BF
:100650008EED91E00E943A021EC0606240E08EED95
:1006600091E00E9467028BE496E40197F1F76091B4
:10067000ED01606240E08EED91E00E94670283E54B
:1006800092E00197F1F76091ED01606240E08EED3C
:1006900091E00E9467026091ED01606240E08EEDA2
:1006A00091E00E94670284E08093EE0140E06CE0FC
:1006B0008EED91E00E94670240E061E08EED91E0F6
:1006C0000E9467028BE39FE10197F1F782E080933C
:1006D000EF0140E066E08EED91E0DF91CF910C9468
:1006E000670241E00E94670281E090E0089508956A
:1006F00080E090E008950E9400066115710579F090
:10070000FB0101900020E9F73197AF01461B570B21
:10071000DC01ED91FC910280F381E02D099480E0F1
:1007200090E008958F929F92AF92BF92EF92FF92C6
:100730000F931F93CF93DF93CDB7DEB7A1970FB67B
:10074000F894DEBF0FBECDBF7C01FA01CB0119A228
:10075000223008F42AE08E010F5D1F4F822E912C6B
:10076000A12CB12CBF01A50194010E94D805F9016B
:10077000CA01015011096A3014F4605D01C0695C5E
:10078000D8016C93232B242B252B61F7B801C701CB
:100790000E947D03A1960FB6F894DEBF0FBECDBFB9
:1007A000DF91CF911F910F91FF90EF90BF90AF908D
:1007B0009F908F9008951F920F920FB60F92112461
:1007C0002F933F938F939F93AF93BF938091390162
:1007D00090913A01A0913B01B0913C0130913801D8
:1007E00023E0230F2D3720F40196A11DB11D05C074
:1007F00026E8230F0296A11DB11D20933801809396
:10080000390190933A01A0933B01B0933C01809150
:100810003D0190913E01A0913F01B09140010196B0
:10082000A11DB11D80933D0190933E01A0933F0116
:10083000B0934001BF91AF919F918F913F912F91C4
:100840000F900FBE0F901F9018951F920F920FB62A
:100850000F9211242F933F934F935F936F937F9346
:100860008F939F93AF93BF93EF93FF9381E491E0B6
:100870000E948901FF91EF91BF91AF919F918F915C
:100880007F916F915F914F913F912F910F900FBE8C
:100890000F901F9018951F920F920FB60F92112470
:1008A0002F938F939F93EF93FF93E0915101F091DA
:1008B00052018081E0915701F091580182FD12C0F0
:1008C000908180915A018F5F8F7320915B01821715
:1008D00051F0E0915A01F0E0EF5BFE4F958F80936D
:1008E0005A0101C08081FF91EF919F918F912F91CB
:1008F0000F900FBE0F901F901895E1E4F1E0138266
:10090000128288EE93E0A0E0B0E084839583A68312
:10091000B78384E091E09183808385EC90E09587B4
:10092000848784EC90E09787868780EC90E0918BB9
:10093000808B81EC90E0938B828B82EC90E0958BA6
:10094000848B86EC90E0978B868B118E128E138EA3
:10095000148EEEEDF1E01382128286E191E0918334
:10096000808381E084838FEF858382E0868384E0C7
:10097000878385E0808786E0818787E0828713868A
:10098000148615861686178681E00C94BA02789430
:1009900084B5826084BD84B5816084BD85B5826084
:1009A00085BD85B5816085BD80916E008160809335
:1009B0006E0010928100809181008260809381009E
:1009C00080918100816080938100809180008160AE
:1009D000809380008091B10084608093B100809109
:1009E000B00081608093B00080917A008460809331
:1009F0007A0080917A00826080937A0080917A00F8
:100A0000816080937A0080917A00806880937A0078
:100A10001092C10082E00E94BA026EE171E08EED98
:100A200091E00E947D03E0915101F091520182E03A
:100A30008083E0914D01F0914E011082E0914F01D1
:100A4000F09150018FEC808310925901E091550193
:100A5000F091560186E08083E0915301F0915401BA
:100A6000808180618083E0915301F0915401808105
:100A700088608083E0915301F09154018081806807
:100A80008083E0915301F091540180818F7D8083B8
:100A9000CBE3DFE181E491E00E94730118161906AF
:100AA0000CF083C081E491E00E94510190933701E2
:100AB0008093360165E271E081E491E00E947D035C
:100AC000C0903601D09037010D2C000CEE08FF08C5
:100AD000F7FE0EC06DE281E491E00E94AB01442775
:100AE0005527BA014C195D096E097F092AE003C038
:100AF0002AE0B701A60181E491E00E94920362E33B
:100B000071E081E491E00E947D03C0903601D090B5
:100B100037010D2C000CEE08FF08F7FE0FC041E076
:100B20006DE28EED91E00E94670244275527BA01DD
:100B30004C195D096E097F092AE003C02AE0B7015C
:100B4000A6018EED91E00E9492030E94F3004B01FA
:100B50005C0188EBC82E8BE0D82EE12CF12C0E9492
:100B6000F300DC01CB0188199909AA09BB09883E69
:100B70009340A105B10598F321E0C21AD108E1081C
:100B8000F10888EE880E83E0981EA11CB11CC114E8
:100B9000D104E104F10419F740E061E08EED91E049
:100BA0000E946702CE010197F1F70E941A0272CFEC
:100BB000A1E21A2EAA1BBB1BFD010DC0AA1FBB1F61
:100BC000EE1FFF1FA217B307E407F50720F0A21BD3
:100BD000B30BE40BF50B661F771F881F991F1A9440
:100BE00069F760957095809590959B01AC01BD016A
:100BF000CF010895EE0FFF1F0590F491E02D0994A9
:0E0C000081E090E0F8940C940506F894FFCF84
:100C0E0000000000AB0118014201F801730151010F
:100C1E00650100000000710318017803770361730A
:100C2E006461736400492072656365697665643A30
:060C3E0020000D0A000079
:107E0000112484B714BE81FFF0D085E080938100F7
:107E100082E08093C00088E18093C10086E0809377
:107E2000C20080E18093C4008EE0C9D0259A86E02C
:107E300020E33CEF91E0309385002093840096BBD3
:107E4000B09BFECF1D9AA8958150A9F7CC24DD24C4
:107E500088248394B5E0AB2EA1E19A2EF3E0BF2EE7
:107E6000A2D0813461F49FD0082FAFD0023811F036
:107E7000013811F484E001C083E08DD089C08234E0
:107E800011F484E103C0853419F485E0A6D080C0E4
:107E9000853579F488D0E82EFF2485D0082F10E0AE
:107EA000102F00270E291F29000F111F8ED06801E7
:107EB0006FC0863521F484E090D080E0DECF843638
:107EC00009F040C070D06FD0082F6DD080E0C81688
:107ED00080E7D80618F4F601B7BEE895C0E0D1E017
:107EE00062D089930C17E1F7F0E0CF16F0E7DF06D8
:107EF00018F0F601B7BEE89568D007B600FCFDCFD4
:107F0000A601A0E0B1E02C9130E011968C91119780
:107F100090E0982F8827822B932B1296FA010C0160
:107F200087BEE89511244E5F5F4FF1E0A038BF0790
:107F300051F7F601A7BEE89507B600FCFDCF97BE46
:107F4000E89526C08437B1F42ED02DD0F82E2BD052
:107F50003CD0F601EF2C8F010F5F1F4F84911BD097
:107F6000EA94F801C1F70894C11CD11CFA94CF0C13
:107F7000D11C0EC0853739F428D08EE10CD085E9AC
:107F80000AD08FE07ACF813511F488E018D01DD067
:107F900080E101D065CF982F8091C00085FFFCCF94
:107FA0009093C60008958091C00087FFFCCF809118
:107FB000C00084FD01C0A8958091C6000895E0E648
:107FC000F0E098E1908380830895EDDF803219F02E
:107FD00088E0F5DFFFCF84E1DECF1F93182FE3DFCA
:107FE0001150E9F7F2DF1F91089580E0E8DFEE27F6
:047FF000FF270994CA
:027FFE00040479
:0400000300007E007B
:00000001FF
