:100000000C945D000C9485000C9485000C94850084
:100010000C9485000C9485000C9485000C9485004C
:100020000C9485000C9485000C9485000C9485003C
:100030000C9485000C9485000C9485000C9485002C
:100040000C94C9020C9485000C9485000C948500D6
:100050000C9485000C9485000C9485000C9485000C
:100060000C9485000C94850000000008000201003B
:100070000003040700000000000000000000000072
:10008000250028002B0000000000240027002A0083
:10009000040404040404040402020202020203032E
:1000A0000303030301020408102040800102040836
:1000B0001020010204081020D30311241FBECFEF2B
:1000C000D8E0DEBFCDBF11E0A0E0B1E0ECEFF7E09B
:1000D00002C005900D92A032B107D9F721E0A0E24D
:1000E000B1E001C01D92A134B207E1F710E0CDE507
:1000F000D0E004C02197FE010E94F103CC35D10766
:10010000C9F70E9413030C94FC030C94000090E0C8
:10011000FC01EC55FF4F2491FC01E057FF4F849107
:10012000882399F090E0880F991FFC01EA57FF4F50
:10013000A591B491FC01E458FF4F859194918FB73C
:10014000F894EC91E22BEC938FBF089590E0FC01C2
:10015000E859FF4F2491FC01EC55FF4F3491FC010D
:10016000E057FF4FE491EE2309F43CC0222339F11C
:10017000233091F038F42130A9F0223001F584B514
:100180008F7D12C0273091F02830A1F02430B9F4CF
:10019000809180008F7D03C0809180008F77809355
:1001A00080000DC084B58F7784BD09C08091B000F8
:1001B0008F7703C08091B0008F7D8093B000F0E016
:1001C000EE0FFF1FE458FF4FA591B4919FB7F8942D
:1001D000611104C08C913095382302C0EC913E2B04
:1001E0003C939FBF08953FB7F8948091250190916B
:1001F0002601A0912701B091280126B5A89B05C032
:100200002F3F19F00196A11DB11D3FBFBA2FA92F95
:10021000982F8827820F911DA11DB11DBC01CD0112
:1002200042E0660F771F881F991F4A95D1F70895FE
:100230008F929F92AF92BF92CF92DF92EF92FF92F6
:100240006B017C010E94F3004B015C01C114D104DD
:10025000E104F104F1F00E94F300DC01CB01881904
:100260009909AA09BB09883E9340A105B10570F31D
:1002700021E0C21AD108E108F10888EE880E83E077
:10028000981EA11CB11CC114D104E104F10419F79A
:10029000DDCFFF90EF90DF90CF90BF90AF909F9019
:1002A0008F900895CF92DF92EF92FF920F931F935A
:1002B000CF93DF936C017A018B01C0E0D0E0CE15C3
:1002C000DF0581F0D8016D918D01D601ED91FC9192
:1002D0000190F081E02DC6010995892B11F021963E
:1002E000EECF7E01C701DF91CF911F910F91FF905B
:1002F000EF90DF90CF900895CF93DF93EC0160E013
:100300008E810E94A60061E08E810E94A60060E0BE
:100310008E810E94A6008BE891E00197F1F7DF91B2
:10032000CF910895CF92DF92EF92FF920F931F9398
:10033000CF93DF936C017C0187E0E80EF11CC0E0F5
:10034000D0E0062F10E0B8010C2E02C0759567951D
:100350000A94E2F76170F70181917F010E94A60083
:100360002196C430D10579F7C601DF91CF911F9155
:100370000F91FF90EF90DF90CF900C947C01CF9283
:10038000DF92EF92FF920F931F93CF93DF93EC01D5
:10039000F62E642F8C810E94A6008D818F3F19F06C
:1003A00060E00E94A6008F850F2D10E084FF25C01D
:1003B0006E0187E0C80ED11CE12CF12CB8010E2C87
:1003C00002C0759567950A94E2F76170F601819114
:1003D0006F010E94A600FFEFEF1AFF0A88E0E816FF
:1003E000F10461F7CE01DF91CF911F910F91FF9042
:1003F000EF90DF90CF900C947C01B80184E075956C
:1004000067958A95E1F7CE010E9492016F2DCE018A
:10041000DF91CF911F910F91FF90EF90DF90CF90E0
:100420000C94920140E0682F89E291E00C94BF01A6
:1004300081E00E9412028BE39FE10197F1F708959A
:10044000CF93DF93823028F0909138019860909399
:10045000380180933C0110923D0180E480933E017D
:1004600080E180933F0180E58093400180912D01E0
:100470000E94870080912E018F3F11F00E9487001B
:1004800080912F010E948700C9E2D1E09E0129528C
:1004900031408091380184FD03C084E090E002C0C7
:1004A00088E090E021962817390724F48E810E9475
:1004B0008700ECCF8BE39DE00197F1F760E080913E
:1004C0002D010E94A60060E080912F010E94A600ED
:1004D00080912E018F3F19F060E00E94A60080916C
:1004E000380184FD20C063E089E291E00E9492011E
:1004F000CBE4D6E4CE010197F1F763E089E291E025
:100500000E9492012197F1F763E089E291E00E9455
:10051000920183E592E00197F1F762E089E291E0D0
:100520000E94920115C080620E9412028BE496E440
:100530000197F1F78091380180620E94120283E5F1
:1005400092E00197F1F78091380180620E941202D7
:100550008091380180620E94120284E08093390108
:100560008CE00E9412020E94180282E080933A01FD
:1005700086E0DF91CF910C94120241E00E94BF010E
:1005800081E090E00895089580E090E008950E9451
:10059000F7031F920F920FB60F9211242F933F93E0
:1005A0008F939F93AF93BF938091210190912201EC
:1005B000A0912301B09124013091200123E0230F69
:1005C0002D3720F40196A11DB11D05C026E8230F8B
:1005D0000296A11DB11D20932001809321019093CB
:1005E0002201A0932301B0932401809125019091D1
:1005F0002601A0912701B09128010196A11DB11DEE
:100600008093250190932601A0932701B0932801A0
:10061000BF91AF919F918F913F912F910F900FBEFE
:100620000F901F901895789484B5826084BD84B52E
:10063000816084BD85B5826085BD85B5816085BDDD
:1006400080916E00816080936E0010928100809195
:10065000810082608093810080918100816080931D
:100660008100809180008160809380008091B10042
:1006700084608093B1008091B00081608093B0006D
:1006800080917A00846080937A0080917A00826001
:1006900080937A0080917A00816080937A008091C3
:1006A0007A00806880937A001092C10082E00E94F4
:1006B0002002C0E0D0E04DE050E06CE071E089E263
:1006C00091E00E94520168EB7BE080E090E00E94A4
:1006D0001801E0913C01E23010F4E15001C0E1E08A
:1006E000F0E0E75DFE4F84898C5F80680E94120213
:1006F00044E050E06AE171E089E291E00E94520139
:1007000068E873E180E090E00E9418010E941802FE
:1007100080913901982F91609093390189600E94EE
:10072000120260EA7FE080E090E00E941801E09110
:100730003C01E23010F4E15001C0E1E0F0E0E75D9F
:10074000FE4F8489895F80680E94120260ED77E025
:1007500080E090E00E941801809139018E7F8093A3
:10076000390188600E94120280913901982F9260AD
:10077000909339018A600E94120268E873E180E078
:1007800090E00E941801809139018D7F809339019A
:1007900088600E9412020E941802209709F48BCFF1
:1007A0000E94000088CFE9E2F1E01382128284E027
:1007B00091E09183808381E084838FEF858382E061
:1007C000868384E0878385E0808786E0818787E071
:1007D00082871386148615861686178681E00C9408
:1007E0002002EE0FFF1F0590F491E02D099481E0A7
:0C07F00090E0F8940C94FC03F894FFCF08
:1007FC0000000000BD025201C402C30248656C6CCB
:10080C006F2C20776F726C642100594159210000C4
:107E0000112484B714BE81FFF0D085E080938100F7
:107E100082E08093C00088E18093C10086E0809377
:107E2000C20080E18093C4008EE0C9D0259A86E02C
:107E300020E33CEF91E0309385002093840096BBD3
:107E4000B09BFECF1D9AA8958150A9F7CC24DD24C4
:107E500088248394B5E0AB2EA1E19A2EF3E0BF2EE7
:107E6000A2D0813461F49FD0082FAFD0023811F036
:107E7000013811F484E001C083E08DD089C08234E0
:107E800011F484E103C0853419F485E0A6D080C0E4
:107E9000853579F488D0E82EFF2485D0082F10E0AE
:107EA000102F00270E291F29000F111F8ED06801E7
:107EB0006FC0863521F484E090D080E0DECF843638
:107EC00009F040C070D06FD0082F6DD080E0C81688
:107ED00080E7D80618F4F601B7BEE895C0E0D1E017
:107EE00062D089930C17E1F7F0E0CF16F0E7DF06D8
:107EF00018F0F601B7BEE89568D007B600FCFDCFD4
:107F0000A601A0E0B1E02C9130E011968C91119780
:107F100090E0982F8827822B932B1296FA010C0160
:107F200087BEE89511244E5F5F4FF1E0A038BF0790
:107F300051F7F601A7BEE89507B600FCFDCF97BE46
:107F4000E89526C08437B1F42ED02DD0F82E2BD052
:107F50003CD0F601EF2C8F010F5F1F4F84911BD097
:107F6000EA94F801C1F70894C11CD11CFA94CF0C13
:107F7000D11C0EC0853739F428D08EE10CD085E9AC
:107F80000AD08FE07ACF813511F488E018D01DD067
:107F900080E101D065CF982F8091C00085FFFCCF94
:107FA0009093C60008958091C00087FFFCCF809118
:107FB000C00084FD01C0A8958091C6000895E0E648
:107FC000F0E098E1908380830895EDDF803219F02E
:107FD00088E0F5DFFFCF84E1DECF1F93182FE3DFCA
:107FE0001150E9F7F2DF1F91089580E0E8DFEE27F6
:047FF000FF270994CA
:027FFE00040479
:0400000300007E007B
:00000001FF
